:020000040000FA
:020000001C29B9
:08000800A000030EA100210E6F
:100010008300A00E200E0900A60A11302502A500BB
:1000200003180C28A60308000511091189100910EE
:1000300085124420051109118914091485124420E0
:1000400008000511091189100910851244200511B5
:100050000911891409108512442008008316843080
:1000600081008312633081000B110B1D35280800BD
:100070000530A2002E20A20B3A2808001430A2005E
:100080002E20A20B402808000516000000000000EA
:1000900005122E200800051109118910091085127A
:1000A00044200511091589140910851244200800FF
:1000B000051109118910091085124420051109152F
:1000C00089100910851244200800051109118910B2
:1000D000091085124420051109118910091085168F
:1000E00044200800051109118910091485163E20C5
:1000F0004420382044204420051109118910091496
:10010000851244204420051109158914091085120F
:100110004420582065200511091189100910851205
:10012000442005110911891409148512442008007E
:100130006430A300CB204230A300CB203930A30091
:10014000CB201030A300CB203730A300CB201030C1
:10015000A300CB203530A300CB201030A300CB2050
:100160003330A300CB201030A300CB201030A300ED
:10017000CB203030A300CB201030A300CB20103098
:10018000A300CB203330A300CB2008000911891035
:10019000091085120800C6200515A31B0915231B8D
:1001A0008914A31A0914231A85164420C62005159C
:1001B000A319091523198914A318091423188516DE
:1001C00044200800051109158914091085124420DE
:1001D0000511091189100910851244200800142006
:1001E000FF30A300CB20080021201030A300CB203B
:1001F00008002608FF3AA600A402F420A60BFD285A
:1002000013292608A407EF20A60B03291329A6010A
:100210000C2026082402031C27140319132926087E
:10022000271CF92801292E201F151F1915291E0822
:10023000E630A500A70107298316003085000030AD
:1002400086000030870000308800003089008F3041
:10025000810000308B0004309F0007309C00831227
:1002600081309F0072204B209820E220FF30A300B5
:06027000CB2013293929FF
:02400E00323F3F
:00000001FF
